:020000040000FA
:040000008031102813
:100008007E1480312000121D0A280B280E28813109
:100018006C2180317E100900803112285F30840005
:100028008F308500693086000030870004308F31BA
:1000380069278031A930840087308500A030860088
:10004800003087001B308F3169278031FD01303047
:100058008400003085002C308F3163278031BB301D
:1000680084000030850008308F31632780317E108E
:1000780020008F31D52F1F3020004005F00070037D
:10008800031D47284828D828440803194C284D2818
:100098004F28D828D8284108F0007008F200063008
:1000A8007206031D5828592881284308F000700853
:1000B800F10021307106031D622863287028B801F9
:1000C800B80A4730B2008730B3002030B0000030A3
:1000D800B100B501B50A812822307106031D7528C3
:1000E80076288128B801B80A3A30B2008630B300C1
:1000F8003F30B0000030B1006D2860304005F0009E
:1001080020307006031989288A288B28D82872037A
:10011800031D8F2890289128D82809307206031DBE
:10012800962897289C28B901B90AB801B80AD8288E
:1001380002307206031DA128A228AE28B801B80A09
:100148005A30F0007008B6000130B0000030B1003D
:10015800B501D8280A307206031DB328B428BB2875
:10016800B801B80A4308F0007008DA00D82803304C
:100178007206031DC028C128CC28B801B80A593016
:10018800F0007008B6000130B0000030B100AC28B3
:100198000B307206031DD128D2284E28B801B80AA0
:1001A8004208F0007008D900080020004108F60055
:1001B8007608F700400860390319E328E428E528A1
:1001C8006B2905307706031DEA28EB28F628B801C5
:1001D800B80A0430F6007608BF004208F600760830
:1001E800BC006B2906307706031DFB28FC28002974
:1001F8008531242580316B2909307706031D0529AF
:1002080006291E29B801B80A4208F6007608DB005C
:100218005B08031D1029112916290430F6007608F9
:10022800BF006B290530F6007608BF008131FE213A
:1002380080316B2908307706031D232924293029AA
:10024800B801B80A5B30F6007608B6000130B00095
:100258000030B100B5016B297708031D3429352911
:1002680039298431BF2480316B29770303193D294B
:100278003E29442903307706031D43294429482988
:100288008331092380316B290A307706031D4D29F4
:100298004E295B29B801B80AC9014930F600760829
:1002A800B6000130B0000030B100B5016B290B3049
:1002B8007706031D602961296429B801B80A6B29EA
:1002C80007307706031D69296A296B296B290800FD
:1002D80020003F08031D7129722977293D009001EC
:1002E80020001211FD293D00101D7B297C29882939
:1002F800121D7F29802988298F3177278131FB308A
:10030800FC007C083D0090058E1C8B298C299029C7
:10031800900120001211FD29101C93299429A0296D
:10032800121C97299829A02987318C278131FE3002
:10033800FC007C083D009005101EA329A429B029C3
:10034800121EA729A829B0298F316F278131EF30D4
:10035800FC007C083D009005101FB329B429C02972
:10036800121FB729B829C0298F3158278131BF30CA
:10037800FC007C083D009005901EC329C429D029A3
:10038800921EC729C829D0298F318A278131DF30A9
:10039800FC007C083D009005901CD329D429DE2957
:1003A800921CD729D829DE2990109301FD30FC0032
:1003B8007C089005033020003F020318E429E52952
:1003C800EA293D00900120001211FD293D00901DF1
:1003D800EE29EF29FB29921DF229F329FB29833104
:1003E8007B238131F730FC007C083D00900520001C
:1003F80012110800F4012000B701F4011E30F000CA
:100408007408993E86000E308700700881007408D1
:10041800F0000130F035FF3E031D0E2A70356B3EAB
:10042800860087010108F1007408F2000230F235F5
:10043800FF3E031D1B2A7235293E8600870171087D
:1004480081007408F0000130F035FF3E031D282AB2
:1004580070356C3E860087010108F1000030F2001B
:100468007408F3000230F335FF3E031D372A733555
:100478002A3E860087017108C03F7208C13F883054
:10048800F0007408F1000230F135FF3E031D482AE0
:100498007135283E86008701700881007408F000D5
:1004A8000130F035FF3E031D552A70356A3E86003F
:1004B80087010108F1000030F2007408F3000230EF
:1004C800F335FF3E031D642A73352E3E86008701EF
:1004D8007108C03F7208C13F4030F0007408F10055
:1004E8000230F135FF3E031D752A71352C3E86001A
:1004F8008701700881000130F0007008F407740863
:100508000319872A882A022A0800003020003102AD
:100518000830031930020318922A932A982A3108BE
:10052800F4003008F3009C2A0830F3000030F4008F
:10053800FC30F0007008A40574080339F000700856
:10054800A4047308F0007008A5004930A600003024
:10055800A70073083002B0007408313BB10049307D
:10056800F0007008FD003503031DBB2ABC2AE32AEE
:10057800F201D52A32088400330885000008F0000B
:100588007D0886008701700881000130B2070030BD
:10059800B33D0130F0007008FD070130F00070082D
:1005A800F2077208F000F10174087102031DDE2AD7
:1005B80073087002031CE12AE22ABE2A082BF20102
:1005C800FB2A3608860087010108F0007D088600AE
:1005D8008701700881000130F0007008B60701300B
:1005E800F0007008FD070130F0007008F20772088B
:1005F800F000F10174087102031D042B73087002E6
:10060800031C072B082BE52A0800200040081F3987
:10061800F0007008F2004208F0007008F300720859
:10062800031D172B182B2A2B7303031D1C2B1D2BA3
:100638007A2BB801B80A03304106031D242B252B59
:10064800282BBD01BD0A7A2BBD017A2B0230720618
:10065800031D2F2B302B7A2B44080F39F00070081C
:10066800F40044088039F0007008F5007308031D91
:100678003E2B3F2B7A2B74080319432B442B7A2BE0
:10068800B801B80A7408F0000230F035FF3E031DC7
:10069800492B7035203EF1007108FD0075080319DB
:1006A800562B572B5B2B0430F0007008FD070330E6
:1006B8004106031D602B612B692B8430F0007D08F7
:1006C80086008701700881007A2B7503031D6D2B46
:1006D8006E2B732B7D088600870181017A2B883069
:1006E800F0007D08860087017008810008003D0041
:1006F8000F08031D802B812BB22B20002008F90046
:100708000230F936890B852B79080F39FA007A08F7
:10071800FB000D307B06031D922B932B972B843106
:1007280055248331E92B3A03031D9B2B9C2BAE2BBD
:100738008631B32683312000201FA32BA42BA92B9D
:100748008830F9007908A000E92BC830F900790849
:10075800A000E92B8F3196278331E92B04300F064F
:10076800031DB72BB82BE92B1608031DBC2BBD2B7B
:10077800D12B043020003F06031DC32BC42BD12BE3
:1007880042083D0096001608031DCB2BCC2BD12B1D
:100798000330F90079082000BF00023020003A0633
:1007A800031DD72BD82BAE2B823189228331200011
:1007B800241FDF2BE02BE52B8830F9007908A400F3
:1007C800E92BC830F9007908A40008002000E300EC
:1007D800E5016508513E8600870181010130E0008E
:1007E8006008E50708306502031CFB2BFC2BED2B8A
:1007F80063080319002C012C532C0C16E601023057
:10080800E0006008E4000630E0006008E200422CE6
:1008180003302000E0006008DC0066088F31EA271A
:100828008331A03E86008701010820006305031973
:100838001E2C1F2C3E2C0330E0006008DC006608EC
:100848008F31EA278331A13E860087010108200005
:10085800E1006408513E860087016108810001308B
:10086800E0006008E4076408620203183C2C3D2C91
:100878003E2C542C0130E0006008E6070330E0000D
:100888006008DC0066088F31EA278331A03E8600C5
:1008980087010108031D512C522C0C2C542C0C12CE
:1008A80008007F30F80078082000A4057F30F800A1
:1008B8007808A005BA01B801B901B001B1018031C9
:1008C800D920843180313F20843120003808031D2D
:1008D8006E2C6F2C7E2C0830A1004030A200003016
:1008E800A3008430F8007808A0008430F800780865
:1008F800A400BC2CC01F812C822CAB2C31084702D1
:10090800031D882C3008460203188B2C8C2C902C45
:100918004708B1004608B00082318922843102308C
:10092800F80078082000BA000830A1004030A20082
:100938000030A3008030F8007808A0004930A600F5
:100948000030A700C830F8007808A400BC2CBA0111
:10095800BA0AA501C830F8007808A4000830A10038
:100968004930A2000030A300C830F8007808A00081
:100978003D000E120800200040081F39F0007008E2
:10098800F400C901CA017408031DCB2CCC2CDB2C44
:10099800B801B80A3B080319D22CD32CD42C49141B
:1009A8003D080319D82CD92C152DC914152D7403FD
:1009B800031DDF2CE02CE32CB801B80A152D0230FA
:1009C8007406031DE82CE92C152D44080F39F00096
:1009D8007008F20044088039F0007008F300B8018C
:1009E800B80A7208F0000230F035FF3E031DF82CFB
:1009F8007035203EF1007108FD0073080319052DBC
:100A0800062D0A2D0430F0007008FD077D088600C9
:100A18008701011D102D112D152D0130F0007008D2
:100A2800C90038080319192D1A2D232D4930F00053
:100A38007008B6000230B0000030B100B5010800FF
:100A4800803020004006031D2A2D2B2D842D4308BD
:100A5800F0007008F4004208F0007008F300740316
:100A6800031D372D382D452DB801B80A0030B200C6
:100A78009030B3001230B0000030B100B501B50AB3
:100A8800842D02307406031D4A2D4B2D562DB801B6
:100A9800B80A3E30B2008730B3002930B0000030C9
:100AA800B100422D03307406031D5B2D5C2D842D8F
:100AB800B801B80A03307302031C632D642D692D35
:100AC8001830B2009030B300782D7308F000F101AF
:100AD800F035F10D1230700784009030713D8500BB
:100AE800003FB200013FB30032088400330885009C
:100AF8000008F000F1017008B0007108B100422D43
:100B080008002000DF005F08DC000230DC35FF3E13
:100B1800031D8A2D5C352C3E86008701811F952D8B
:100B2800962D972DDF2D5F08DC000130DC35FF3E68
:100B3800031D9A2D5C35693E860087010108DD009A
:100B48005F08DE000230DE35FF3E031DA72D5E354F
:100B58002D3E860087015D0881005F08DC000230B9
:100B6800DC35FF3E031DB42D5C352C3E8600870125
:100B7800011FBF2DC02DD02D8830DC005F08DD009F
:100B88000230DD35FF3E031DC52D5D352C3E860048
:100B980087015C088100DF2DC830DC005F08DD00BC
:100BA8000230DD35FF3E031DD52D5D352C3E860018
:100BB80087015C08810008002000DF005F08DC0076
:100BC8000230DC35FF3E031DE52D5C35283E8600EE
:100BD8008701811BF02DF12D392E5F08DC000130D3
:100BE800DC35FF3E031DF42D5C356B3E8600870126
:100BF8000108DD005F08DE000230DE35FF3E031D20
:100C0800012E5E35293E860087015D0881005F0858
:100C1800DC000230DC35FF3E031D0E2E5C35283E1D
:100C280086008701011F192E1A2E2A2E8830DC0013
:100C38005F08DD000230DD35FF3E031D1F2E5D35E8
:100C4800283E860087015C088100392EC830DC0008
:100C58005F08DD000230DD35FF3E031D2F2E5D35B8
:100C6800283E860087015C088100080005340134AD
:100C780009340634A1340134053407341934E03416
:100C88002934E734153400342534013475340134FB
:100C98009534083481340234953401347534083479
:100CA80081340334953405347534013405340834FB
:100CB800193401342934053491340234953401341B
:100CC8007534033491340334953406347534083458
:100CD80015340034253465340534073419340034A8
:100CE8002934653481340034C03422008E16303003
:100CF800890B7C2E22008E122000DE01DF01E0012C
:100D0800031020008E1D03140030093DDC005F0A2B
:100D18008E2EDC35890B8D2E5C08DD005D08DE0427
:100D280022000E161830890B972E22000E1218304A
:100D3800890B9C2E01302000DF070030E03D600861
:100D4800803ADC0080305C02031DAC2E08305F0264
:100D5800031CAF2EB02E842E20005E08080003303E
:100D680020002005F0007008F4002108F300730843
:100D78003007B0007408313DB1004930F000700808
:100D8800B600F101F201DE2E36088600870101085F
:100D9800F0007D0886008701700881000130F000AE
:100DA8007008B6070130F0007008FD070130F10740
:100DB8000030F23D74087202031DE42E73087102BC
:100DC800031CE72EE82EC82E0800053020003F0639
:100DD800031DEF2EF02EF82E3D008E18F42EF52E62
:100DE800F82E8F31C4278631863179268631200046
:100DF800E7006708E80068083E06031D042F052F72
:100E0800062F132F68088331EA2386310030853195
:100E18008525863120006808E7006708BE000800BD
:100E28002A34033431340034363400344634003440
:100E3800313400343434003435340034353400343B
:100E48002034003448340034493400344434003405
:100E5800203400344B3400346534003479340034A1
:100E6800623400346F340034613400347234003436
:100E78006434003409340234293400340134013430
:100E88000034A034323409340434003400340234D9
:100E98000334013401340034093421341134013469
:100EA8000034013422343F340034073405348134AB
:100EB800033408340034013407340534013403346E
:100EC8000834003401342000DD005D0803196D2F5B
:100ED8006E2F702F00308B2F5D08DC000230DC3560
:100EE800FF3E031D732F5C35283E86008701811B5A
:100EF8007E2F7F2F6E2F5D08DC000230DC35FF3E31
:100F0800031D822F5C35293E8600870101080800F1
:100F18003D00930190019F3097007B30920096012D
:100F280016309800982F901190199B2F9C2F972F6F
:100F38000E128F31962787312000BD01BB01DB01DE
:100F48000330F1007108BF00080001340434003494
:100F58000234053400340434293400340834283485
:100F680000341034523400342034513400344034C6
:100F78005034003480344F340034003400340034AA
:100F88003D008E19C82FC92FCF2F8E0192018E15C3
:100F98002000BF01BF0A3D008E1AD32FD42FCF2FB8
:100FA800900192011214121602302000DC005C0835
:100FB800BF00080018340334443400344934003482
:100FC8005934003420340034443400346534003457
:100FD80076340034693400346334003465340034C2
:100FE800733400344B303D0092000B178B172100EF
:060FF800121508000800BC
:101EB0003D00101308003D000E170E1308000834F3
:101EC00051340834BB34640080010131890B642F24
:101ED0000034FE0012001E00FE0B6A2F00343D008D
:101EE0001215EF30F000700890058E1408003D00C8
:101EF0008E101211FB30F0007008900508002300CE
:101F00008E1121008E150E128E1223000C1221004C
:101F10000C1208003D00181C8E2F8F2F942F8F312C
:101F200096278F313D001810901208002000BA014A
:101F30000830A1004030A2000030A3008830F0003B
:101F40007008A000A401080023008C018E0121006C
:101F50009801FC309900903027009B00C33021008D
:101F6000950022008E01080014303D0091002000F1
:101F7000BF01BD01DB013D00960193018F315B275D
:101F80008F313D000E1208000030873167278F31F6
:101F9000003A0319CC2FCD2FD42F8731FE278F3154
:101FA00000308531E0258F3108008F31A4278F3133
:101FB0008F317F278F318F31B4278F318731C427FD
:101FC0008F318731F6278F318631E9268F31E42F23
:101FD000803110282000DF00DE015F1CF02FF12F80
:101FE000F52F5C08DD005D08DE070310DC0D031033
:101FF000DF0C5F08031DFD2FFE2FED2F5E0808008C
:102000001234013400340234003400340034083413
:10201000D8340434A6340134013400340134023499
:102020000034013418349034DE3487341434873467
:082030000434033409340434C4
:020000040001F9
:04000E00A4CFCFDFCD
:00000001FF
