:020000040000FA
:040000008031102813
:1000060008007E1480312000121D0A280B280E28B5
:1000160081316C2180317E100900803112285D30DB
:1000260084008F3085006A308600003087000430F7
:100036008731FA278031AB30840087308500A030C5
:100046008600003087001B308731FA278031FD019A
:1000560030308400003085002C308F3161278031AC
:10006600BB3084000030850008308F316127803135
:100076007E1020008F31D52F1F3020004005F00064
:100086007003031D47284828D828440803194C281C
:100096004D284F28D828D8284108F0007008F200CB
:1000A60006307206031D5828592881284308F00097
:1000B6007008F10021307106031D6228632870283C
:1000C600B801B80A2D30B2008730B3002030B00036
:1000D6000030B100B501B50A812822307106031D32
:1000E600752876288128B801B80A4A30B2008630C9
:1000F600B3003F30B0000030B1006D2860304005DD
:10010600F00020307006031989288A288B28D82801
:100116007203031D8F2890289128D828093072066B
:10012600031D962897289C28B901B90AB801B80A70
:10013600D82802307206031DA128A228AE28B801CD
:10014600B80A5A30F0007008B6000130B00000302E
:10015600B100B501D8280A307206031DB328B428A9
:10016600BB28B801B80A4308F0007008DA00D8289E
:1001760003307206031DC028C128CC28B801B80A6E
:100186005930F0007008B6000130B0000030B10000
:10019600AC280B307206031DD128D2284E28B80190
:1001A600B80A4208F0007008D9000800200041088B
:1001B600F6007608F700400860390319E328E428BA
:1001C600E5286B2905307706031DEA28EB28F62873
:1001D600B801B80A0430F6007608BF004208F600F7
:1001E6007608BC006B2906307706031DFB28FC2821
:1001F60000298531342580316B2909307706031DA6
:10020600052906291E29B801B80A4208F60076080B
:10021600DB005B08031D1029112916290430F6009E
:100226007608BF006B290530F6007608BF008131DD
:10023600FE2180316B2908307706031D23292429E6
:100246003029B801B80A5B30F6007608B6000130EE
:10025600B0000030B100B5016B297708031D3429C1
:10026600352939298431CF2480316B297703031945
:100276003D293E29442903307706031D4329442995
:1002860048298331842380316B290A307706031D80
:100296004D294E295B29B801B80AC9014930F60033
:1002A6007608B6000130B0000030B100B5016B2908
:1002B6000B307706031D602961296429B801B80A45
:1002C6006B2907307706031D69296A296B296B2973
:1002D600080020003F08031D7129722977293D0077
:1002E600900120001211FD293D00101D7B297C295B
:1002F6008829121D7F29802988298F316F2781310E
:10030600FB30FC007C083D0090058E1C8B298C2957
:100316009029900120001211FD29101C932994297F
:10032600A029121C97299829A02987317227813183
:10033600FE30FC007C083D009005101EA329A42970
:10034600B029121EA729A829B0298F316727813124
:10035600EF30FC007C083D009005101FB329B4293E
:10036600C029121FB729B829C0298F3156278131D4
:10037600BF30FC007C083D009005901EC329C429AF
:10038600D029921EC729C829D0298F318A278131C1
:10039600DF30FC007C083D009005901CD329D42951
:1003A600DE29921CD729D829DE2990109301FD3029
:1003B600FC007C089005033020003F020318E42966
:1003C600E529EA293D00900120001211FD293D0092
:1003D600901DEE29EF29FB29921DF229F329FB290D
:1003E6008331F6238131F730FC007C083D0090050F
:1003F600200012110800F4012000B701F4011E309C
:10040600F0007408993E86000E308700700881005F
:100416007408F0000130F035FF3E031D0E2A7035DA
:100426006C3E860087010108F1007408F200023074
:10043600F235FF3E031D1B2A7235293E86008701D1
:10044600710881007408F0000130F035FF3E031D8D
:10045600282A70356D3E860087010108F1000030BC
:10046600F2007408F3000230F335FF3E031D372A0D
:1004760073352A3E860087017108C03F7208C13F66
:100486008830F0007408F1000230F135FF3E031D9C
:10049600482A7135283E8600870170088100740855
:1004A600F0000130F035FF3E031D552A70356B3ED6
:1004B600860087010108F1000030F2007408F3009D
:1004C6000230F335FF3E031D642A73352E3E860047
:1004D60087017108C03F7208C13F4030F0007408C0
:1004E600F1000230F135FF3E031D752A71352C3EB1
:1004F60086008701700881000130F0007008F4075B
:1005060074080319872A882A022A08000030200066
:1005160031020830031930020318922A932A982AC6
:100526003108F4003008F3009C2A0830F30000304C
:10053600F400FC30F0007008A40574080339F000DC
:100546007008A4047308F0007008A5004930A600DE
:100556000030A70073083002B0007408313BB100C8
:100566004930F0007008FD003503031DBB2ABC2A84
:10057600E32AF201D52A32088400330885000008F0
:10058600F0007D0886008701700881000130B207FF
:100596000030B33D0130F0007008FD070130F00077
:1005A6007008F2077208F000F10174087102031D69
:1005B600DE2A73087002031CE12AE22ABE2A082BEF
:1005C600F201FB2A3608860087010108F0007D0843
:1005D60086008701700881000130F0007008B607B8
:1005E6000130F0007008FD070130F0007008F207D6
:1005F6007208F000F10174087102031D042B7308E0
:100606007002031C072B082BE52A08002000E400D3
:10061600E6016608513E8600870181010130E0004F
:100626006008E60708306602031C1A2B1B2B0C2BEE
:10063600640803191F2B202B822B0C16E7010230AE
:10064600E0006008E5000630E0006008E100712B7C
:1006560003302000E0006008DC0067088F31EA27DD
:100666008331A03E86008701010820006405031936
:100676003D2B3E2B6D2B0330E0006008DC00670845
:100686008F31EA278331A13E86008701403F200053
:10069600E200413FE300E53062066304031D542B8C
:1006A600552B5A2B2030E0006008D1006D2B6208D4
:1006B600E0006508513E8600870160088100013030
:1006C600E0006008E5076508610203186B2B6C2BD8
:1006D6006D2B832B0130E0006008E7070330E00054
:1006E6006008DC0067088F31EA278331A03E860068
:1006F60087010108031D802B812B2B2B832B0C12CA
:100706000800200040081F39F0007008F200420877
:10071600F0007008F3007208031D922B932BA52B93
:100726007303031D972B982BF52BB801B80A0330DA
:100736004106031D9F2BA02BA32BBD01BD0AF52B44
:10074600BD01F52B02307206031DAA2BAB2BF52B30
:1007560044080F39F0007008F40044088039F000AE
:100766007008F5007308031DB92BBA2BF52B740816
:100776000319BE2BBF2BF52BB801B80A7408F0007D
:100786000230F035FF3E031DC42B7035203EF100CC
:100796007108FD0075080319D12BD22BD62B043016
:1007A600F0007008FD0703304106031DDB2BDC2B30
:1007B600E42B8430F0007D088600870170088100F4
:1007C600F52B7503031DE82BE92BEE2B7D08860020
:1007D60087018101F52B8830F0007D0886008701AE
:1007E6007008810008003D000F08031DFB2BFC2B41
:1007F6002D2C20002008F9000230F936890B002C38
:1008060079080F39FA007A08FB000D307B06031DC4
:100816000D2C0E2C122C843165248331642C3A0362
:10082600031D162C172C292C8631C3268331200054
:10083600201F1E2C1F2C242C8830F9007908A000BC
:10084600642CC830F9007908A000642C8F319627F3
:100856008331642C04300F06031D322C332C642C98
:100866001608031D372C382C4C2C043020003F066C
:10087600031D3E2C3F2C4C2C42083D0096001608CA
:10088600031D462C472C4C2C0330F9007908200018
:10089600BF00023020003A06031D522C532C292C8F
:1008A6008231892283312000241F5A2C5B2C602C34
:1008B6008830F9007908A400642CC830F90079085A
:1008C600A40008007F30F80078082000A4057F30D7
:1008D600F8007808A005BA01B801B901B001B10164
:1008E6008031D920843180313F208431200038087E
:1008F600031D7E2C7F2C8E2C0830A1004030A200D8
:100906000030A3008430F8007808A0008430F80096
:100916007808A400CC2CC01F912C922CBB2C31083B
:100926004702031D982C3008460203189B2C9C2C6A
:10093600A02C4708B1004608B000823189228431D4
:100946000230F80078082000BA000830A1004030D4
:10095600A2000030A3008030F8007808A0004930DB
:10096600A6000030A700C830F8007808A400CC2CF8
:10097600BA01BA0AA501C830F8007808A400083000
:10098600A1004930A2000030A300C830F800780862
:10099600A0003D000E120800200040081F39F0009C
:1009A6007008F400C901CA017408031DDB2CDC2C95
:1009B600EB2CB801B80A3B080319E22CE32CE42C13
:1009C60049143D080319E82CE92C252DC914252DB9
:1009D6007403031DEF2CF02CF32CB801B80A252D57
:1009E60002307406031DF82CF92C252D44080F3906
:1009F600F0007008F20044088039F0007008F30037
:100A0600B801B80A7208F0000230F035FF3E031D47
:100A1600082D7035203EF1007108FD00730803199A
:100A2600152D162D1A2D0430F0007008FD077D08CF
:100A360086008701011D202D212D252D0130F00076
:100A46007008C90038080319292D2A2D332D49307D
:100A5600F0007008B6000230B0000030B100B501F9
:100A66000800803020004006031D3A2D3B2D942DB2
:100A76004308F0007008F4004208F0007008F30024
:100A86007403031D472D482D552DB801B80A0030B3
:100A9600B2009030B3001230B0000030B100B501A2
:100AA600B50A942D02307406031D5A2D5B2D662D52
:100AB600B801B80A2430B2008730B3002930B0003C
:100AC6000030B100522D03307406031D6B2D6C2DC2
:100AD600942DB801B80A03307302031C732D742DCC
:100AE600792D1830B2009030B300882D7308F000CD
:100AF600F101F035F10D1230700784009030713D30
:100B06008500003FB200013FB3003208840033087D
:100B160085000008F000F1017008B0007108B1000E
:100B2600522D08002000DF005F08DC000230DC35B3
:100B3600FF3E031D9A2D5C352C3E86008701811FE2
:100B4600A52DA62DA72DEF2D5F08DC000130DC3585
:100B5600FF3E031DAA2D5C356A3E8600870101080B
:100B6600DD005F08DE000230DE35FF3E031DB72DD7
:100B76005E352D3E860087015D0881005F08DC003A
:100B86000230DC35FF3E031DC42D5C352C3E86004D
:100B96008701011FCF2DD02DE02D8830DC005F08A6
:100BA600DD000230DD35FF3E031DD52D5D352C3EC3
:100BB600860087015C088100EF2DC830DC005F08E5
:100BC600DD000230DD35FF3E031DE52D5D352C3E93
:100BD600860087015C08810008002000DF005F08AE
:100BE600DC000230DC35FF3E031DF52D5C35283E6A
:100BF60086008701811B002E012E492E5F08DC002E
:100C06000130DC35FF3E031D042E5C356C3E86004C
:100C160087010108DD005F08DE000230DE35FF3E99
:100C2600031D112E5E35293E860087015D08810071
:100C36005F08DC000230DC35FF3E031D1E2E5C35EE
:100C4600283E86008701011F292E2A2E3A2E88303B
:100C5600DC005F08DD000230DD35FF3E031D2F2E70
:100C66005D35283E860087015C088100492EC83024
:100C7600DC005F08DD000230DD35FF3E031D3F2E40
:100C86005D35283E860087015C0881000800053432
:100C9600013409340634A1340134053407341934D7
:100CA600E0342934E73415340034253401347534FE
:100CB6000134953408348134023495340134753462
:100CC60008348134033495340534753401340534DD
:100CD60008341934013429340534913402349534F6
:100CE6000134753403349134033495340634753441
:100CF6000834153400342534653405340734193482
:100D060000342934653481340034C03422000E1690
:100D16003030890B8C2E22000E122000DE01DF01FE
:100D2600E001031020008E1D03140030093DDC0095
:100D36005F0A9E2EDC35890B9D2E5C08DD005D0862
:100D4600DE0422008E161830890BA72E22008E1282
:100D56001830890BAC2E01302000DF070030E03D53
:100D66006008803ADC0080305C02031DBC2E08302F
:100D76005F02031CBF2EC02E942E20005E080800C2
:100D8600033020002005F0007008F4002108F3006D
:100D960073083007B0007408313DB1004930F000E7
:100DA6007008B600F101F201EE2E360886008701C2
:100DB6000108F0007D088600870170088100013077
:100DC600F0007008B6070130F0007008FD0701302A
:100DD600F1070030F23D74087202031DF42E730809
:100DE6007102031CF72EF82ED82E080005302000BD
:100DF6003F06031DFF2E002F082F3D008E18042FDF
:100E0600052F082F8F31C4278631863189268631F2
:100E16002000E8006808E90069083E06031D142F53
:100E2600152F162F232F69088331092386310030A9
:100E360085319525863120006908E8006808BE00DE
:100E460008000934023429340034013401340034F2
:100E5600A034323409340434003400340234033408
:100E6600013401340034093421341134013400349E
:100E7600013422343F3400340734053481340334DA
:100E8600083400340134073405340134033408349B
:100E9600003401342000DD005D080319532F542F60
:100EA600562F0030712F5D08DC000230DC35FF3E26
:100EB600031D592F5C35283E86008701811B642F50
:100EC600652F542F5D08DC000230DC35FF3E031D24
:100ED600682F5C35293E86008701010808003D0021
:100EE600930190019F3097007B3092009601163057
:100EF60098007E2F90119019812F822F7D2F0E1230
:100F06008F31962787312000BD01BB01DB010330FD
:100F1600F1007108BF0008001C3403344A34003461
:100F26006F34003465340034203400344F340034D8
:100F36007334003474340034723400346134003451
:100F46006E34003464340034653400347234003452
:100F560001341B34003402341D3400340434E534C7
:100F66000034083428340034103452340034203429
:100F76005134003440345034003480344F3400341B
:100F86000034003400341A3403344E34003445340B
:100F9600003453340034203400344B340034653488
:100FA600003479340034623400346F3400346134F0
:100FB600003472340034643400343D008E19E42F5A
:100FC600E52FEB2F8E0192018E152000BF01BF0A7F
:100FD6003D008E1AEF2FF02FEB2F90019201121485
:100FE600121602302000DC005C08BF000800FE007C
:0A0FF60012001E00FE0BFB2F00345A
:101EAC003D00101308003D000E170E1308000834F7
:101EBC0051340834BB34640080010131890B622F2A
:101ECC0000343D001215EF30F000700890058E14B0
:101EDC0008003D008E101211FB30F00070089005C8
:101EEC0008004B303D0092000B178B172100121588
:101EFC00080023008E1121008E150E128E12230065
:101F0C000C1221000C1208003D00181C8E2F8F2F74
:101F1C00942F8F3196278F313D00181090120800A6
:101F2C002000BA010830A1004030A2000030A3000C
:101F3C008830F0007008A000A401080023008C0178
:101F4C008E0121009801FC309900903027009B00F5
:101F5C00C3302100950022008E01080014303D0092
:101F6C0091002000BF01BD01DB013D0096019301F2
:101F7C008F3159278F313D000E1208000030873108
:101F8C004D278F31003A0319CC2FCD2FD42F803110
:101F9C0003208F3100308531F0258F3108008F31CF
:101FAC00A4278F318F317F278F318F31B4278F3119
:101FBC008731E0278F318F3177278F318631F926A2
:101FCC008F31E42F803110282000DF00DE015F1CF0
:101FDC00F02FF12FF52F5C08DD005D08DE070310F4
:101FEC00DC0D0310DF0C5F08031DFD2FFE2FED2F02
:101FFC005E0808001234013400340234003400341A
:10200C0000340834D8340434A63401340134003498
:10201C000134023400340134183490348F34873452
:0C202C00C634873404340334093404340F
:020000040001F9
:04000E00A4CFCFDFCD
:00000001FF
